:100000000C9434000C9446000C9446000C9446006A
:100010000C9446000C9446000C9446000C94460048
:100020000C9446000C9446000C9446000C94460038
:100030000C9446000C9446000C9446000C94460028
:100040000C9448000C9446000C9446000C94460016
:100050000C9446000C9446000C9446000C94460008
:100060000C9446000C94460011241FBECFEFD8E03C
:10007000DEBFCDBF21E0A0E0B1E001C01D92A830FD
:10008000B207E1F70E9400010C94C2020C94000038
:100090001F920F920FB60F9211242F933F934F93FD
:1000A0005F936F937F938F939F93AF93BF93EF93E0
:1000B000FF93609107018BEF643B18F4611103C05B
:1000C00085E08093060180910601680F6093070127
:1000D00070E090E080E00E94C70121E73AE540EB44
:1000E0005EE30E94550220E030E04CE752E40E94BB
:1000F0002C010E94980170E0709389006093880041
:10010000609105018DEF643B18F4611103C083E039
:100110008093040180910401680F6093050170E0F1
:1001200090E080E00E94C70121E73AE540EB5EE302
:100130000E94550220E030E04CE752E40E942C017E
:100140000E94980170E070938B0060938A00609128
:1001500003018FEF643B18F4611103C081E08093C9
:10016000020180910201680F6093030170E090E04A
:1001700080E00E94C70127EF3AE540EB5DE30E9473
:10018000550220E030E040E851E40E942C010E943A
:1001900098016093B300609101018EEF643B18F405
:1001A000611103C08AE08093000180910001680F13
:1001B0006093010170E090E080E00E94C70127EFAA
:1001C0003AE540EB5DE30E94550220E030E040E874
:1001D00051E40E942C010E9498016093B400FF91A9
:1001E000EF91BF91AF919F918F917F916F915F91AF
:1001F0004F913F912F910F900FBE0F901F90189528
:1002000080916E00816080936E0085B58D7F85BD85
:1002100085B5856085BD809181008C60809381006B
:100220008091B10087608093B10080918000836AE3
:10023000809380008091B000836A8093B00084B185
:100240008E6084B9539A78948DE78093B3008FE3DE
:100250008093B400FFCF5058BB27AA270E944301C8
:100260000C941B020E940D0238F00E94140220F030
:1002700039F49F3F19F426F40C940A020EF4E09529
:10028000E7FB0C940402E92F0E942C0258F3BA17E2
:10029000620773078407950720F079F4A6F50C949C
:1002A0004E020EF4E0950B2EBA2FA02D0B01B901D2
:1002B00090010C01CA01A0011124FF27591B99F0DC
:1002C000593F50F4503E68F11A16F040A22F232FE8
:1002D000342F4427585FF3CF469537952795A79538
:1002E000F0405395C9F77EF41F16BA0B620B730BDF
:1002F000840BBAF09150A1F0FF0FBB1F661F771F50
:10030000881FC2F70EC0BA0F621F731F841F48F404
:10031000879577956795B795F7959E3F08F0B0CF8D
:100320009395880F08F09927EE0F97958795089574
:100330000E94340288F09F5798F0B92F9927B7513F
:10034000B0F0E1F0660F771F881F991F1AF0BA9579
:10035000C9F714C0B13091F00E944E02B1E0089587
:100360000C944E02672F782F8827B85F39F0B93F79
:10037000CCF3869577956795B395D9F73EF490952C
:100380008095709561957F4F8F4F9F4F0895E894AA
:1003900009C097FB3EF490958095709561957F4FCD
:1003A0008F4F9F4F9923A9F0F92F96E9BB2793957B
:1003B000F695879577956795B795F111F8CFFAF48B
:1003C000BB0F11F460FF1BC06F5F7F4F8F4F9F4FBC
:1003D00016C0882311F096E911C0772321F09EE81A
:1003E000872F762F05C0662371F096E8862F70E080
:1003F00060E02AF09A95660F771F881FDAF7880F5A
:100400009695879597F9089597F99F6780E870E02A
:1004100060E008959FEF80EC089500240A9416167A
:10042000170618060906089500240A9412161306E2
:10043000140605060895092E0394000C11F4882370
:1004400052F0BB0F40F4BF2B11F460FF04C06F5F8C
:100450007F4F8F4F9F4F089557FD9058440F551F62
:1004600059F05F3F71F04795880F97FB991F61F036
:100470009F3F79F087950895121613061406551FAD
:10048000F2CF4695F1DF08C0161617061806991F19
:10049000F1CF86957105610508940895E894BB270E
:1004A00066277727CB0197F908950E9468020C947C
:1004B0001B020E940D0238F00E94140220F09523C6
:1004C00011F00C9404020C940A0211240C944F02B3
:1004D0000E942C0270F3959FC1F3950F50E0551FB9
:1004E000629FF001729FBB27F00DB11D639FAA2789
:1004F000F00DB11DAA1F649F6627B00DA11D661FD8
:10050000829F2227B00DA11D621F739FB00DA11DF8
:10051000621F839FA00D611D221F749F3327A00DB2
:10052000611D231F849F600D211D822F762F6A2F4E
:1005300011249F5750409AF0F1F088234AF0EE0FB3
:10054000FF1FBB1F661F771F881F91505040A9F7E0
:100550009E3F510580F00C9404020C944F025F3FC3
:10056000E4F3983ED4F3869577956795B795F7951C
:10057000E7959F5FC1F7FE2B880F911D9695879594
:0805800097F90895F894FFCFEC
:00000001FF
